:100000000C9438000C9442000C9442000C94420072
:100010000C9442000C9442000C9442000C94420058
:100020000C9442000C9442000C9442000C94420048
:100030000C9442000C9442000C9442000C94420038
:100040000C9442000C9442000C9442000C94420028
:100050000C9442000C9442000C9442000C94420018
:100060000C9442000C9442000C9442000C94420008
:1000700011241FBECFEFD4E0DEBFCDBF0E9496009B
:100080000C94B3000C94000081E08BBB17B8E9EF2F
:10009000F0E03197F1F700C0000087B9F6EAFA9571
:1000A000F1F700C017B808958BE38BBB17B889EF41
:1000B00090E00197F1F700C0000081E087B996EA6F
:1000C0009A95F1F700C017B808958FE08BBB17B869
:1000D00089EF90E00197F1F700C0000081E087B957
:1000E00096EA9A95F1F700C017B8089586E08BBBA1
:1000F00017B889EF90E00197F1F700C0000081E0A8
:1001000087B996EA9A95F1F700C017B808958BBBA6
:100110008DE087B986EA8A95F1F700C08EE087B94D
:1001200086EA8A95F1F700C017B808958FEF8ABB69
:1001300086B90E9444000E9454000E9465000E94FB
:100140007600C0E0D0E011E6C530D10594F7812FEC
:100150000E94870083ED90E30197F1F700C0000053
:0A0160001F5F2196F1CFF894FFCF46
:00000001FF
